:020000040800F2
:1000000000170020CD010008D5010008D701000825
:10001000D9010008DB010008DD0100080000000034
:10002000000000000000000000000000DF010008E8
:10003000E101000800000000E3010008CD190008FC
:10004000E7010008E7010008E7010008E7010008F0
:10005000E7010008E7010008E7010008E7010008E0
:10006000E7010008E7010008E70100082D07000884
:10007000E7010008E7010008E7010008E7010008C0
:10008000E7010008E7010008E7010008E7010008B0
:10009000E7010008E7010008E7010008E7010008A0
:1000A000E7010008311A0008E7010008E70100082D
:1000B000A91A0008C11B0008E11B0008E70100089D
:1000C000E7010008E7010008E7010008E701000870
:1000D000E7010008891C0008B91C0008E7010008B6
:1000E000E7010008E7010008E7010008E701000850
:1000F000E7010008E7010008E7010008E701000840
:10010000E7010008E7010008E7010008E70100082F
:10011000E7010008E7010008E7010008E70100081F
:10012000E7010008E7010008E7010008E70100080F
:1001300000F002F800F03AF80AA090E8000C8244BF
:100140008344AAF10107DA4501D100F02FF8AFF29C
:10015000090EBAE80F0013F0010F18BFFB1A43F0A5
:10016000010318470C2B00002C2B0000103A24BF71
:1001700078C878C1FAD8520724BF30C830C144BF0C
:1001800004680C607047000000230024002500264E
:10019000103A28BF78C1FBD8520728BF30C148BFEA
:1001A0000B6070471FB51FBD10B510BD00F064F99E
:1001B0001146FFF7F7FF01F069FE00F096F903B46E
:1001C000FFF7F2FF03BC01F0E1FD000009488047A2
:1001D00009480047FEE7FEE7FEE7FEE7FEE7FEE729
:1001E000FEE7FEE7FEE7FEE704480549054A064B41
:1001F00070470000D11900083101000800110020EB
:10020000001700200013002000130020704700009A
:100210000FB4044910B503AA029800F0DBF810BC33
:100220005DF814FB1C00002030B505460B462A463D
:1002300013F8014B12F8010B08B1A042F8D01CB121
:10024000002802D06D1CF1E7284630BD10B5431CD4
:1002500002E010F8011B71B18107FAD14FF00132B1
:1002600002C88C1A8C4314EAC211F9D0C01A0A06CB
:1002700003D0C01E10BDC01A10BD0A0401D0801EDC
:1002800010BD0902FCD0401E10BD421E12F8013FF5
:10029000002BFBD111F8013B002B02F8013BF9D1F7
:1002A000704710B5203AC0F00B80B1E81850203AE2
:1002B000A0E81850B1E81850A0E81850BFF4F5AF06
:1002C0005FEA027C24BFB1E81850A0E8185044BF90
:1002D00018C918C0BDE810405FEA827C24BF51F8FD
:1002E000043B40F8043B08BF7047D20728BF31F8F1
:1002F000023B48BF11F8012B28BF20F8023B48BF42
:1003000000F8012B70474FF000020429C0F0128062
:1003100010F0030C00F07280CCF1040CBCF1020F61
:1003200018BF00F8012BA8BF20F8022BA1EB0C018D
:1003300000F064B85FEAC17C24BF00F8012B00F82C
:10034000012B48BF00F8012B704700004FF0013C23
:1003500050F8042B51F8043B9A4221D1A2EB0C0334
:10036000934313EACC1317D150F8042B51F8043BF4
:100370009A4215D1A2EB0C03934313EACC130BD191
:1003800050F8042B51F8043B9A4209D1A2EB0C031C
:10039000934313EACC13DBD04FF00000704700BF4B
:1003A000D01A01BAB1FA81F101F0180122FA01F074
:1003B000CB40C1F12001DBB2C0B2C01A2CFA01F36C
:1003C000D11A914311EAC311E6D1704770477047C3
:1003D00070470000074B70B50D467B4400F039F8BC
:1003E0000446284601F031FD10B14FF0FF3070BDDA
:1003F000204670BD931A00004FF0000200B513466E
:1004000094469646203922BFA0E80C50A0E80C5034
:10041000B1F12001BFF4F7AF090728BFA0E80C50E5
:1004200048BF0CC05DF804EB890028BF40F8042BDE
:1004300008BF704748BF20F8022B11F0804F18BF4B
:1004400000F8012B7047000001694A1C026108781E
:10045000704700B58FB0CDE9013100210591054904
:100460007944CDE903101146684600F02AF80FB030
:1004700000BD0000E5FFFFFF754600F03FF8AE4607
:1004800005006946534620F00700854618B020B5A0
:10049000FFF7AAFEBDE820404FF000064FF000072E
:1004A0004FF000084FF0000B21F00701AC46ACE81C
:1004B000C009ACE8C009ACE8C009ACE8C0098D4689
:1004C00070472DE9F04106460024D6E90170F56831
:1004D0008046304603E04146B847641C3046A84792
:1004E0000028F8D12046BDE8F08110B50446AFF3EE
:1004F00000802046BDE81040FFF761BE004870470D
:10050000A010002070B504460D460026204601F0DC
:100510000DFF19E00AE0701C80B20646B0F5FA7FC4
:1005200001DB012070BD012001F032FC074800789A
:100530000028F0D000200549087029460448FFF73C
:1005400073FE08B10020EDE7E4E700002000002082
:100550009A08002010B50346002040F04040D443E4
:10056000C4F3811440EA0470CC43C4F3811440EA1C
:100570008460DC43C4F3811440EA046040EA024032
:1005800040EA0120184310BD0E48806940F0080081
:100590000C4988610C48406820F0E0600A494860D6
:1005A0000846406840F0007048600848006820F441
:1005B0007040064908600846006840F480400860C2
:1005C000704700000010024000000140000C014094
:1005D0000E48806940F008000C4988610C4840686A
:1005E00020F0E0600A4948600846406840F000702A
:1005F00048600848006820F47040064908600846D2
:10060000006840F44050086070470000001002404D
:1006100000000140000C014070B50024002508E0F6
:100620004FF6FF7000EA440400F04EF80443681CE3
:10063000C5B2082DF4DB204670BD000070B504463D
:1006400000F05AF81A48006800282FD100BF184857
:1006500000680028FBD000BF154800680128FBD0C7
:10066000002504E0FFF7D8FF6055681CC5B2052DD2
:10067000F8DB00BF0E4800680028FBD0FFF7A8FF9A
:1006800001200B4980310860207861780844A17806
:100690000844E1780844C6B22079B04204D005A0ED
:1006A000FFF7B6FD012070BD0020FCE70220FAE74D
:1006B0000C812142444854313120436865636B20EA
:1006C0006572726F720D0A0010B500BF09480068AC
:1006D0000028FBD0282001F08BFB06480068012889
:1006E00006D100BF034800680128FBD0012010BDDF
:1006F0000020FCE70C81214210B5FFF769FF0120C3
:100700000849086000200849C1F88C01142001F054
:100710003FFB0120034908601E2001F069FBFFF741
:1007200033FF10BD8C812142008021420A480068BD
:1007300000F0020078B10848406840F00200064925
:10074000486000BF0448006800F002000028F9D1AA
:10075000012002490870704700000240200000207C
:1007600010B50B4B9B6823F00103094CA36000BF3D
:10077000074B9B6803F00103002BF9D1044B186170
:100780005961DA609B6843F00103014CA36010BD1E
:10079000000002402DE9F0413948406940F0010075
:1007A000374948613748806820F001003549886042
:1007B00000BF3448806800F001000028F9D13149B9
:1007C00088600846806840F48040886008468068F9
:1007D00040F0800088600846806840F040008860F3
:1007E0000846806840F0020088600B200522012442
:1007F00025461346C3F1070CBCF1040F02D94FF094
:10080000040C01E0C3F1070C674603F1040CBCF1D2
:10081000070F02D24FF0000C01E0A3F1030C664673
:100820004FF0010C0CFA07FCACF1010C0CEA040CC3
:100830000CFA06FC4FF0010808FA06F8A8F10108C6
:1008400008EA05084CEA080100BF002807DA0A0791
:10085000140E0D4A00F00F031B1FD45403E00A07C7
:10086000130E0A4A135400BF0B2001218140420994
:10087000920002F1E022C2F8001100BFBDE8F08151
:10088000001002400000024018ED00E000E400E02B
:1008900010B50AA10AA0FFF735FE044644B90CA022
:1008A000FFF7B6FC15A20621002000F0E7FD04E0EA
:1008B00015A20621002000F0E1FD10BD4F4B000005
:1008C00041542B43495053454E440D0A000000004B
:1008D0000D0A596F752063616E20474554206F7271
:1008E00020504F5354207769746820736572766581
:1008F00072206E6F770D0A0D0A0D0A00434950539E
:10090000454E44204F4B000043495053454E442030
:100910004572726F7200000030B599B004460D4602
:1009200064221D496846FFF7BCFC1CA16846FFF71E
:10093000ACFC21466846FFF7A8FC1AA16846FFF701
:10094000A4FC29466846FFF7A0FC17A16846FFF7FC
:100950009CFC684601F0EAFC1CE000BF13480078EC
:100960000028FBD000201149087011A11148FFF7A1
:100970005BFC50B110A0FFF74BFC13A20421002038
:1009800000F07CFD002019B030BD13A2042100202E
:1009900000F074FDE1E70000B82300082254435042
:1009A000222C2200222C00000D0A00002000002032
:1009B0004F4B00009A08002054435020436F6E6E46
:1009C00065637465640D0A0054435020436F6E6E76
:1009D000656374656421000054435020436F6E6E5C
:1009E000656374696E67000030B599B004460D46C2
:1009F00064221F496846FFF754FC1EA11EA0FFF7A2
:100A000081FD20A16846FFF740FC21466846FFF7BC
:100A10003CFC1DA16846FFF738FC29466846FFF7F5
:100A200034FC1AA16846FFF730FC684601F07EFCF2
:100A30001CE000BF164800780028FBD000201449B5
:100A400008700CA11348FFF7EFFB50B112A202216E
:100A5000002000F013FD14A0FFF7DAFB002019B00E
:100A600030BD16A20221002000F008FDE1E70000E1
:100A7000542300084F4B000041542B435751415021
:100A80000D0A000022000000222C2200220D0A0084
:100A9000200000209A0800205749464920436F6EE5
:100AA0006E656374656421005749464920436F6E43
:100AB0006E65637465640D0A00000000574946497D
:100AC00020436F6E6E656374696E670010B502A097
:100AD00001F02CFC10BD00002B2B2B0010B5FFF7F4
:100AE000F5FF642001F054F900F06EF84FF4FA704D
:100AF00001F04EF912A113A0FFF704FD044624B142
:100B000013A0FFF785FB022010BD0DA114A0FFF775
:100B1000F9FC044624B117A0FFF77AFB0320F3E7A2
:100B200007A119A0FFF7EEFC044624B11AA0FFF7B5
:100B30006FFB0420E8E71EA0FFF76AFB0020E3E755
:100B40004F4B000041542B474D520D0A000000004E
:100B500041542B474D52206572726F720D0A00008E
:100B600041542B43574D4F44455F4445463D310D5D
:100B70000A00000041542B4349504D4F44453D313C
:100B8000204552524F52000041542B4349504D4F83
:100B900044453D310D0A000041542B4349504D4F0F
:100BA00044453D31206572726F720D0A00000000ED
:100BB0004854545020436F6E6669672053756363D1
:100BC00065737365640D0A0010B513A001F0AEFBE8
:100BD00012A001F0ABFB1DE000BF14480078002814
:100BE000FBD000201149087011A11348FFF71CFB2E
:100BF00058B100F089FA11A0FFF70AFB15A20021F5
:100C0000084600F03BFC002010BD15A2002108465C
:100C100000F034FCE0E700002B2B2B0041542B525A
:100C20004553544F52450D0A00000000200000209B
:100C300072656164790000009A08002045535038BD
:100C400032363620524553544F5245204F4B0D0AF1
:100C500000000000526573746F7265204F4B0000F6
:100C6000526573746F7265204572726F7200000076
:100C700070B586B00D4801F059FB0DA000F02CF8BE
:100C800006460936002404E0305D0DF80400601CBF
:100C9000C4B2182CF8DB09A16846FFF757FBC5B2B0
:100CA00015B9012006B070BD0020FBE70C2C000830
:100CB000436F64696E673A30580000003433323352
:100CC0003231333533393334343234643036366389
:100CD000666633310000000070B5044621460348C3
:100CE000FFF7A2FA0546284670BD00009A080020CA
:100CF00010B51848007800282BD00020154908703E
:100D000001201549086015480078401C13490870F7
:100D100013A20621002000F0B1FB10490978C1EBB5
:100D2000C1015731C8B22E22062100F0C7FA0B4884
:100D30000078042807D10020084908700BA206217A
:100D4000582000F09BFB0A2001F022F80020024905
:100D5000086010BD20000020AC81214292000020DC
:100D6000476574696E6720646174610020202020EB
:100D70000000000070B5054629A0FFF7ADFF04464E
:100D80000834204601F065F82849087028A0FFF7CC
:100D9000A3FF04460A34204601F05BF8234948705B
:100DA00026A0FFF799FF04460934204601F051F8C8
:100DB0001E49887024A0FFF78FFF04460A3420469E
:100DC00001F047F800B21949888022A0FFF784FF9C
:100DD0000446241D204601F03CF8144988711FA0E8
:100DE000FFF77AFF0446083420782B2807D1641CCB
:100DF000204601F02EF840B20C49C8710AE0207874
:100E00002D2807D1641C204601F023F8404240B24F
:100E10000649C8710548016829604068686070BD6E
:100E20005247425F5265643A000000008A00002089
:100E30005247425F477265656E3A00005247425F13
:100E4000426C75653A000000537465704D6F746FA5
:100E5000723A00005553423A0000000044434D6F7F
:100E6000746F723A000000000A48806940F0080080
:100E7000084988610848006820F470400649086005
:100E80000846006840F400500860002003490860EC
:100E90007047000000100240040C0140AC81214268
:100EA00020B900210B4A1180121F1180002805DD96
:100EB0000021084A1180411E121F1180002807DA04
:100EC0000021044A121F1180C0F1FF31121D118050
:100ED00070470000380400404848806940F0010035
:100EE000464988610846806940F0080088610846E4
:100EF000C06940F00200C8614148006820F47020D9
:100F00003F4908600846006840F410200860084621
:100F1000006820F4700008600846006840F4100083
:100F200008603848406820F0E0603649486008466C
:100F3000406840F0007048600846406820F4406017
:100F400048600846406840F4006048602E480088C9
:100F500040F060002C4908800846008820F003001B
:100F600008800846008840F4C04008800846008891
:100F700020F44070088024480830008840F00200C7
:100F80002149083108800846008840F001000880A7
:100F90000846008840F0200008800846008840F09D
:100FA0001000088040F2CF201749103108806320DC
:100FB000091D08801448001F008840F001001249F4
:100FC000091F0880081F008820F00100091F088001
:100FD00000BF0D48001F008800F001000028F8D174
:100FE00009491C310880091D088007481838008805
:100FF00040F0010004491839088070470010024091
:10100000000C0140000001401804004000F01F02E5
:10101000012191404209920002F1E022C2F8001140
:10102000704700F01F02012191404209920002F135
:10103000E022C2F800117047F0B503460C4603F0F9
:101040000701C1F10700042801D9042001E0C1F122
:1010500007000646081D072801D2002000E0C81E30
:1010600005460120B040401E2040A8400127AF4067
:101070007F1E17403843F0BDF0B503460C4603F021
:101080000701C1F10700042801D9042001E0C1F1E2
:1010900007000646081D072801D2002000E0C81EF0
:1010A00005460120B040401E2040A8400127AF4027
:1010B0007F1E17403843F0BD10B5002807DA0A0735
:1010C000140E054A00F00F031B1FD45403E00A0757
:1010D000130E024A135410BD18ED00E000E400E0C6
:1010E00010B5002807DA0A07140E054A00F00F03AE
:1010F0001B1FD45403E00A07130E024A135410BDF9
:1011000018ED00E000E400E070B5002415E004F103
:10111000B001C8B200F0AAF8102000F0A7F8002033
:1011200000F0A4F8002504E0002000F0B3F8681CEB
:10113000C5B2802DF8DB601CC4B2082CE7DB70BDA3
:1011400010B500F067F800F0DFFA01202F490860C1
:10115000642000F01DFE00202D49C1F89801642094
:1011600000F016FE012029490860642000F010FEFE
:10117000AE2000F07BF8D52000F078F8502000F089
:1011800075F8A82000F072F83F2000F06FF8D32027
:1011900000F06CF8002000F069F8402000F066F8DC
:1011A0008D2000F063F8142000F060F8202000F09B
:1011B0005DF8022000F05AF8A12000F057F8C8208E
:1011C00000F054F8DA2000F051F8122000F04EF848
:1011D000812000F04BF8EF2000F048F8D92000F013
:1011E00045F8F12000F042F8DB2000F03FF8302015
:1011F00000F03CF8A42000F039F8A62000F036F802
:10120000AF2000F033F8FFF77FFF10BD9881214237
:10121000008021421148806940F008000F49886130
:101220000F48006820F07F400D49086008460068BC
:1012300040F04C500860081D006820F47020091D23
:1012400008600846006840F4403008600120054905
:1012500008600549C1F8980170470000001002407D
:10126000000C01409C8121420080214210B50446BF
:101270000020064908600649C1F8B001204600F088
:101280007DFA01200149086010BD00009C812142C7
:101290000080214210B50446002006490860012064
:1012A0000549C1F8B001204600F068FA0120014963
:1012B000086010BD9C812142008021422DE9F0414F
:1012C00080460E461746A7F12000C5B2314640467B
:1012D00000F028FB002407E004EB05110D4A505CE8
:1012E000FFF7D8FF601CC4B2082CF5DB701CC1B23C
:1012F000404600F017FB002408E004EB051108311C
:10130000044A505CFFF7C6FF601CC4B2082CF4DB33
:10131000BDE8F0811C2600082DE9F04104460E4688
:10132000154628780A2190FBF1F03030C7B23A46D2
:1013300031462046FFF7C2FF28780A2190FBF1F2E0
:1013400001FB12003030C7B204F10801C8B23A46BE
:101350003146FFF7B3FF04F11001C8B22E22314627
:10136000FFF7ACFF69783031CAB204F11801C8B296
:101370003146FFF7A3FFBDE8F081000010B5FFF78D
:10138000C3FE12A20021084600F078F8114A02219B
:10139000002000F056F8104A0221102000F051F809
:1013A0003A2202212020FFF789FF0C4A0421002065
:1013B00000F047F8084A0421102000F042F83A22D1
:1013C00004212020FFF77AFF10BD00004164616D09
:1013D0007300000021000020410000206100002077
:1013E0002DE9F04104460E461546A8780A2190FBE7
:1013F000F1F03030C7B23A4631462046FFF75EFF83
:10140000A8780A2190FBF1F201FB12003030C7B23C
:1014100004F10801C8B23A463146FFF74FFF04F124
:101420001001C8B22E223146FFF748FFE97830316B
:10143000CAB204F11801C8B23146FFF73FFFBDE858
:10144000F0812DE9F04180460C46154626460FE016
:101450003146404600F066FA002705E015F8010B1A
:10146000FFF718FF781CC7B2102FF7DB701CC6B24D
:10147000A01C8642ECDBBDE8F08100002DE9F047BE
:1014800080468946164600272BE0F05D2038C5B21D
:101490004946404600F046FA002407E004EB0511F7
:1014A000134A505CFFF7F6FE601CC4B2082CF5DB53
:1014B00009F10100C1B2404600F034FA002408E00E
:1014C00004EB051108310A4A505CFFF7E3FE601C8B
:1014D000C4B2082CF4DB08F1080000F0FF08781C07
:1014E000C7B23046FEF7B2FEB842CED8BDE8F087AC
:1014F0001C2600082DE9F04104460D46164600273B
:10150000324629462046FFF725F80746002000F01E
:1015100009F8384600F006F8384600F003F8BDE850
:10152000F081000070B5044600251AE004F0004088
:1015300018B101200C49086002E000200A49086047
:10154000640000200849091F0860C82000F050FC12
:1015500001200649C1F8A001C82000F049FC681C20
:10156000C5B2202DE2DB70BDA48121420080214262
:1015700010B50B48806940F00800094988610948A6
:10158000006820F0FF00074908600846006840F046
:1015900011000860002211461046FFF7ABFF10BD96
:1015A00000100240040C014054490978491C534A78
:1015B000117001284AD111460978012906D0022963
:1015C00013D0032921D004293ED12DE001214C4A1A
:1015D000116000214B4AC2F89811494A083A11603B
:1015E0000121484AC2F890112FE00021444A1160BD
:1015F0000121444AC2F898110021414A083A116079
:101600000121404AC2F890111FE000213C4A1160BC
:1016100001213C4AC2F89811394A083A1160002168
:10162000384AC2F8901110E00121354A11600021BA
:10163000344AC2F898110121314A083A1160002158
:10164000304AC2F8901100E000BF4CE000284AD1B7
:101650002A490978012906D0022914D0032921D06A
:1016600004293ED12EE00121254A11600021254A9E
:10167000C2F898110121224A083A11600021214A3A
:10168000C2F890112EE000211D4A116001211D4A6F
:10169000C2F898111A4A083A11600021194AC2F892
:1016A00090111FE00021164A11600121154AC2F86D
:1016B00098110021124A083A11600121114AC2F81A
:1016C00090110FE001210E4A116000210D4AC2F86D
:1016D00098110B4A083A116001210A4AC2F8901188
:1016E00000E000BF00BF054A1178CA1701EB9272F3
:1016F0009210A1EB8202014B1A7070478600002005
:101700009C012142000021421948806940F00800F4
:10171000174988611748006820F47000154908606F
:101720000846006840F4300008600846006820F071
:10173000704008600846006840F0304008600C487F
:10174000C06940F480400A49C86100200A49088005
:101750000846008840F4407008800846008840F041
:10176000040008800846008840F040000880704768
:1017700000100240040C014000380040014600BF48
:101780000A48008800F002000028F9D00748001D30
:10179000018000BF0548008800F001000028F9D052
:1017A0000248001D0088C0B27047000008380040A1
:1017B0001E491F4A51601F4951601146096921F4B1
:1017C0004071116100BF1A49C96801F00101002987
:1017D000F9D11749096941F00201154A11614FF425
:1017E0007C4151611146096941F04001116100BF1E
:1017F0000F49C96801F001010029F9D10C490969B3
:1018000021F002010A4A11611146096941F0010102
:101810001161094908801146096921F0010111612E
:101820001146096941F08001116170472301674544
:1018300000200240AB89EFCD00FC010810B500F09C
:1018400001F810BD0CB500200190009033480068ED
:1018500040F480303149086000BF3048006800F42F
:10186000003000900198401C0190009818B9019830
:10187000B0F5A06FF1D12948006800F4003010B134
:101880000120009001E0002000900098012843D141
:101890002348006840F010002149086008460068AD
:1018A00020F0030008600846006840F0020008606D
:1018B0001A48406819494860084640684860084628
:1018C000406840F4806048600846406820F47C101E
:1018D00048600846406840F4E810486008460068E0
:1018E00040F08070086000BF0C48006800F0007095
:1018F0000028F9D00948406820F0030007494860F3
:101900000846406840F00200486000BF0348406855
:1019100000F00C000828F9D10CBD000000100240B6
:101920000020024070B504460D4605F1B001C8B272
:10193000FFF79CFC102141EA2410FFF797FC04F00C
:101940000F00FFF793FC70BD00B50A48806940F0B6
:101950000200084988610848006880B206490860AA
:1019600008460068054908430349086000F03EFB4B
:1019700000BD0000001002400008014000003333A9
:1019800000B503460648B0F90000984207D0054864
:10199000038003490988591A08B200F0D3F900BD41
:1019A00000FC010884000020002006490860064968
:1019B000C1F898010349083908600349C1F890014A
:1019C000704700009C012142000021427047000046
:1019D00010B51348006840F001001149086008463E
:1019E0004068104908400E494860084600680E49A2
:1019F00008400B4908600846006820F48020086011
:101A00000846406820F4FE0048604FF41F008860DC
:101A1000FFF714FF4FF000600449086010BD00009C
:101A2000001002400000FFF8FFFFF6FE08ED00E0A6
:101A300000B51848008820F001001649088000BF52
:101A40001448008800F001000028F9D112480078FD
:101A5000FFF7AAFD11480088401C80B20F4908809A
:101A60000F49097801EB81010901884211DB00204F
:101A70000A490880FFF798FF0A48B0F90000FFF70D
:101A800097FE04481038008820F001000149103901
:101A9000088000BD102C014082000020880000203A
:101AA00083000020840000201CB54FF08040008A95
:101AB00020F001004FF08041088200BF4FF08040CD
:101AC000008A00F001000028F8D13948FEF7B6FD81
:101AD000374A02212820FFF783FC354A04212820B9
:101AE000FFF71AFCFFF704F9FFF7C2F801285DD1F0
:101AF0006846FFF73FF92F4800990160019941605E
:101B00002D4800782B49097888420BD12A48407823
:101B100028494978884205D127488078254989781D
:101B200088420ED023488078FF280ADC21480078BC
:101B3000FF2806DC1F484078FF2802DC01201F49EF
:101B400048701D4880791B498979884209D0194815
:101B50008079012802D01748807910B901201749EF
:101B6000C8701548B0F904001249B1F90410884250
:101B70000CD01048B0F904000A2807DC0D48B0F971
:101B80000400002802DB01200C4908700A4890F983
:101B90000700084991F90710884207D0054890F9D5
:101BA0000700642802DC0120044988701CBD000085
:101BB0001400002000000020080000201000002079
:101BC0000648008820F001000449088000BF03484F
:101BD000008800F001000028F9D17047100400408F
:101BE00010B52648008820F001002449088000BF75
:101BF0002248008800F001000028F9D1204890F820
:101C00000008012819D100201D4981F800084FF46F
:101C100080611B48FEF777FB1A48FEF717FB044666
:101C2000224617491748FEF79BFD144810380088D4
:101C300020F00100114910390880114890F805087A
:101C4000D0B10F4890F80408401CC0B20C4981F88C
:101C50000408642810DD00210948B0F8022809486A
:101C600081540020064981F80508A1F8020881F88E
:101C70000408012081F8000810BD00001008004091
:101C80009A0800209A0C00200949098801F02001D7
:101C900069B10749091D0988C8B200BF054909880B
:101CA00001F080010029F9D00249091D0880704720
:101CB00000380140004400400E480088C1B20E4880
:101CC000B0F80228B0F80208401C0B4BA3F8020839
:101CD00003F5806081540120194681F80508002031
:101CE00081F804080548008840F001000349088095
:101CF00070470000044400409A080020000800409B
:101D000018B10121034A116002E00021014A11606B
:101D100070470000848121420848806940F0080033
:101D2000064988610648006820F0F0000449086010
:101D30000846006840F0300008607047001002401C
:101D4000000C014000280BDD01210D4A11700D4AE5
:101D500010700D49098841F001010B4A11800DE016
:101D600000280BDA0021064A11704142054A117021
:101D70000549098841F00101034A118070470000BC
:101D80008200002083000020002C014000BFFEE7FD
:101D900002464FF0E020006920F004004FF0E023FD
:101DA00018614FF47A70504300EBC0005861002076
:101DB00098611846006940F00100186100BF4FF0BB
:101DC000E020016901F4803018B901F00100002819
:101DD000F5D14FF0E020006920F001004FF0E02342
:101DE000186101F0010008B1002070470120FCE7F4
:101DF00002464FF0E020006920F004004FF0E0239D
:101E0000186102EBC2005861002098611846006911
:101E100040F00100186100BF4FF0E020016901F4BB
:101E2000803018B901F001000028F5D14FF0E02012
:101E3000006920F001004FF0E023186101F001007B
:101E400008B1002070470120FCE701464FF0FF3049
:101E500070470146002007E00A7800EB800302EBA0
:101E60004302A2F13000491C0A783B2AF4D17047A2
:101E700000BF054A128802F08002002AF9D0024B06
:101E80001B1D1880704700000038014005200246E5
:101E9000454B19684FF6FF031940444B0B4343EA87
:101EA0000221414B196000BFFEF7DEFFFFF760FB28
:101EB000FFF746F9FFF710F84FF4E131482000F042
:101EC00065F94FF4E131242000F0C8F914214FF4F2
:101ED000347000F029F942F210714FF4E15000F033
:101EE000F7F8FEF757FCFFF72FFDFEF7F7FD30A1DF
:101EF00032A0FEF779FD34A135A0FEF70DFDFEF707
:101F0000C7FCFFF709FFFFF739FA4FF08040008860
:101F100040F001004FF08041088043E030480078F5
:101F200001280BD100202E4908702E4880882E49A8
:101F300088802C49B1F90400FFF722FD2848407839
:101F4000012812D1002026494870264800782649E9
:101F500008702448407848702248807888700B4682
:101F60009A7859781878FFF7C5FA1D4880780128C3
:101F70000AD100201A4988701A48C0791A49C871D4
:101F800091F90700FEF78CFF1548C078012809D1A8
:101F900000201349C87013488079134988718879E3
:101FA000FFF7AEFEBAE700000CED00E00000FA0516
:101FB0003833343037383035000000004144414D6B
:101FC00053462037353832003830383000000000B2
:101FD0003139322E3136382E3133372E3100000070
:101FE0001000002000000020080000202DE9F04132
:101FF0003348806940F400603149886109203149E3
:10200000088041F61F40091D08802E481C380088B2
:1020100040F001002B491C390880192005220124B9
:1020200003251346C3F1070CBCF1040F02D94FF08E
:10203000040C01E0C3F1070C674603F1040CBCF18A
:10204000070F02D24FF0000C01E0A3F1030C66462B
:102050004FF0010C0CFA07FCACF1010C0CEA040C7B
:102060000CFA06FC4FF0010808FA06F8A8F101087E
:1020700008EA05084CEA080100BF002807DA0A0749
:10208000140E114A00F00F031B1FD45403E00A077B
:10209000130E0E4A135400BF19200121814042093A
:1020A000920002F1E022C2F8001100BF0548283872
:1020B000008820F00100034928390880BDE8F0813C
:1020C00000100240282C014018ED00E000E400E080
:1020D00070B504460D461348C06940F0010011492F
:1020E000C861601E89040885681E88850846808945
:1020F00040F001008881032201210520FEF79CFFAA
:10210000064631461C20FEF7D7FF1C20FEF77EFF57
:102110004FF08040008820F001004FF0804108809F
:1021200070BD00000010024070B504460D46154811
:10213000C06940F004001349C861601E124908805C
:10214000681E091D088010481C38008840F00100F6
:102150000D491C390880032201210520FEF76CFF80
:10216000064631461E20FEF7A7FF1E20FEF74EFF53
:1021700005482838008820F00100034928390880E4
:1021800070BD0000001002402808004070B50446F1
:102190000D462E48806940F001002C4988610846B0
:1021A000806940F0040088610846806940F48040FE
:1021B00088612748006820F0F0002549086008463B
:1021C000006840F0B00008600846006820F47060C5
:1021D00008600846006840F4806008601D4860435D
:1021E000B0FBF5F01C490880081D008820F48050E1
:1021F000091D0880081D008820F44050091D088032
:10220000032211460520FEF737FF064631462520FA
:10221000FEF766FF2520FEF704FF0F48001D00882B
:1022200040F020000C49091D08800846008840F055
:10223000080008800846008840F00400088008462E
:10224000008840F40050088070BD0000001002407B
:102250000408014040420F000838014070B50446B0
:102260000D462E48806940F001002C4988610846DF
:10227000806940F0040088610846C06940F400307D
:10228000C8612748006820F4706025490860084646
:10229000006840F4306008600846006820F4704030
:1022A00008600846006840F4804008601D486043AC
:1022B000B0FBF5F01C490880081D008820F4805010
:1022C000091D0880081D008820F44050091D088061
:1022D000042203210520FEF7CFFE064631462620C4
:1022E000FEF7FEFE2620FEF79CFE0F48001D00882C
:1022F00040F020000C49091D08800846008840F085
:10230000080008800846008840F00400088008465D
:10231000008840F40050088070BD000000100240AA
:102320000008014040420F00084400400BE000BF9D
:102330000749098801F080010029F9D010F8011B34
:10234000034A121D118001780029F0D17047000066
:102350000044004041542B43574A41505F44454696
:102360003D00000000000000000000000000000030
:10237000000000000000000000000000000000005D
:10238000000000000000000000000000000000004D
:10239000000000000000000000000000000000003D
:1023A000000000000000000000000000000000002D
:1023B000000000000000000041542B4349505354DA
:1023C0004152543D000000000000000000000000E9
:1023D00000000000000000000000000000000000FD
:1023E00000000000000000000000000000000000ED
:1023F00000000000000000000000000000000000DD
:1024000000000000000000000000000000000000CC
:1024100000000000000000000000000000000000BC
:1024200000000000000000000000000000000000AC
:10243000000000000000000000000000000000009C
:10244000000000000000000000000000000000008C
:10245000000000000000000000000000000000007C
:1024600000000000000080C0C060307070181808C4
:102470000C0C0C0E0E06068686868686868606065A
:102480000E0E0E0C1C3878F0C0000000000000009A
:10249000000000000000000000000000000000003C
:1024A00000000000000307030000F0783C1C0E0E43
:1024B00006060707070303030303030303030307D6
:1024C000060C1838F0F0E0C1030F3C78E000000083
:1024D00000000000000000000000000000000000FC
:1024E00000000000000000000000010100000000EA
:1024F00020203078F8383C0C0C0C0C0C0C0C0C0424
:102500001C704000000100010000000000000000FD
:1025100000000000000000000000000000000000BB
:1025200000000000000000000000000000000000AB
:10253000000000000000C0F0F0F0F000000000001B
:10254000000000000000000000000000000000008B
:10255000000000000000000000000000000000007B
:10256000000000000000000000000000000000006B
:10257000000000000000010303030300000000004E
:10258000000000000000000000000000000000004B
:10259000000000000000000000000000000000003B
:1025A000000000000000000000000000000000002B
:1025B000000000000000000000000000000000001B
:1025C000000000000000000000000000000000000B
:1025D00000000000000000000000000000000000FB
:1025E00000000000000000000000000000000000EB
:1025F00000000000000000000000000000000000DB
:1026000000000000000000000000000000000000CA
:1026100000000000000000000000000000000000BA
:10262000000000000000000000000000000000F8B2
:1026300000000000000000333000000000100C0615
:10264000100C0600000000000000000040C07840B0
:10265000C0784000043F04043F040400007088FC7C
:1026600008300000001820FF211E0000F008F000D4
:10267000E018000000211C031E211E0000F0088845
:10268000700000001E2123241927211000020204DB
:10269000000000000000000000000000000000E05A
:1026A000180402000000000718204000000204186F
:1026B000E00000000040201807000000404080F0CB
:1026C000804040000202010F01020200000000F001
:1026D000000000000101011F0101010000000000D5
:1026E0000000000080B0700000000000000000004A
:1026F00000000000000101010101010100000000D3
:102700000000000000303000000000000000000069
:1027100080601804006018060100000000E0100846
:102720000810E000000F102020100F00001010F81B
:10273000000000000020203F20200000007008085A
:1027400008887000003028242221300000300888DA
:10275000884830000018202020110E000000C02002
:1027600010F8000000070424243F240000F8088823
:10277000880808000019212020110E0000E01088B0
:1027800088180000000F112020110E0000380808E2
:10279000C83808000000003F0000000000708808F2
:1027A00008887000001C222121221C0000E0100873
:1027B0000810E0000000312222110F00000000C0CC
:1027C000C000000000000030300000000000008069
:1027D0000000000000008060000000000000804059
:1027E0002010080000010204081020004040404072
:1027F00040404000040404040404040000081020C5
:102800004080000000201008040201000070480809
:102810000808F0000000003036010000C030C82871
:10282000E810E0000718272423140B000000C0382C
:10283000E0000000203C23020227382008F88888A6
:1028400088700000203F202020110E00C0300808B2
:1028500008083800071820202010080008F8080889
:102860000810E000203F202020100F0008F8888882
:10287000E8081000203F20202320180008F888884E
:10288000E8081000203F200003000000C0300808C6
:102890000838000007182020221E020008F808004F
:1028A0000008F808203F210101213F20000808F816
:1028B000080800000020203F202000000000080839
:1028C000F8080800C08080807F00000008F888C0F9
:1028D00028180800203F20012638200008F80800AA
:1028E00000000000203F20202020300008F8F800E1
:1028F000F8F80800203F003F003F200008F830C0F3
:102900000008F808203F200007183F00E0100808E2
:102910000810E0000F10202020100F0008F8080811
:102920000808F000203F210101010000E010080824
:102930000810E0000F18242438504F0008F8888849
:1029400088887000203F2000030C30200070880829
:10295000080838000038202121221C00180808F837
:10296000080818000000203F2000000008F80800B8
:102970000008F808001F202020201F000878880089
:1029800000C83808000007380E010000F80800F8F9
:102990000008F800033C0700073C030008186880A3
:1029A0008068180820302C03032C30200838C80019
:1029B000C83808000000203F200000001008080868
:1029C000C83808002038262120201800000000FE0A
:1029D000020202000000007F40404000000C30C0B6
:1029E00000000000000000010638C00000020202E2
:1029F000FE000000004040407F0000000000040294
:102A000002020400000000000000000000000000BE
:102A100000000000808080808080808010160E0082
:102A200000000000000000000000000000008080A6
:102A3000808000000019242222223F2008F8008014
:102A400080000000003F112020110E0000000080D7
:102A500080800000000E1120202011000000008066
:102A60008088F800000E112020103F200000808098
:102A700080800000001F222222221300008080F0AC
:102A8000888888180020203F2020000000008080D7
:102A900080808000006B94949493600008F800801C
:102AA00080800000203F210000203F200080989877
:102AB000000000000020203F2020000000000080D7
:102AC0009898000000C08080807F000008F8000017
:102AD00080808000203F24022D302000000808F86C
:102AE000000000000020203F202000008080808027
:102AF00080808000203F20003F20003F80800080B9
:102B000080800000203F210000203F2000008080C6
:102B100080800000001F202020201F008080008077
:102B20008000000080FFA12020110E000000008026
:102B300080808000000E112020A0FF808080800017
:102B40008080800020203F21200001000000808044
:102B5000808080000033242424241900008080E039
:102B6000808000000000001F202000008080000006
:102B700000808000001F202020103F2080808000E7
:102B80000080808000010E300806010080800080F7
:102B9000008080800F300C030C300F00008080001C
:102BA000808080000020312E0E3120008080800047
:102BB0000080808080818E701806010000808080F7
:102BC000808080000021302C222130000000000095
:102BD000807C020200000000003F40400000000036
:102BE000FF00000000000000FF0000000002027C67
:102BF000800000000040403F00000000000601018E
:102C000002020404000000000000000047455420B8
:102C10002F48544D4C2F4164616D732E68746D6C58
:102C200020485454502F312E310D0A486F73743A96
:102C3000203139322E3136382E3133372E310D0ACC
:102C4000436F6E6E656374696F6E3A204B65657095
:102C50002D416C6976650D0A557365722D41676566
:102C60006E743A204164616D730D0A0D0A00000014
:102C7000902C000800000020940000006C01000867
:102C8000242D0008940000206C1600008801000824
:102C90000000000000000000000000000000000034
:102CA0000000000000000000000000000000000024
:102CB000001060028C0000FE9292929292FE000040
:102CC0000004047E01407E42427E427E42427E40BB
:102CD000000000FC242424FC252624FC24242404B5
:102CE0000040308F80844C55252525554C808080B0
:102CF000001060028C00FE929292929292FE00006E
:102D00000004047E014448507F40407F50484440C6
:102D100000000000000000000000000000000000B3
:042D200000000000AF
:0400000508000131BD
:00000001FF
